{
  "contractName": "ZombieFactory",
  "abi": [
    {
      "constant": true,
      "inputs": [
        {
          "name": "",
          "type": "uint256"
        }
      ],
      "name": "zombies",
      "outputs": [
        {
          "name": "name",
          "type": "string"
        },
        {
          "name": "dna",
          "type": "uint256"
        },
        {
          "name": "level",
          "type": "uint32"
        },
        {
          "name": "readyTime",
          "type": "uint32"
        },
        {
          "name": "winCount",
          "type": "uint16"
        },
        {
          "name": "lossCount",
          "type": "uint16"
        }
      ],
      "payable": false,
      "stateMutability": "view",
      "type": "function"
    },
    {
      "constant": true,
      "inputs": [
        {
          "name": "",
          "type": "uint256"
        }
      ],
      "name": "zombieToOwner",
      "outputs": [
        {
          "name": "",
          "type": "address"
        }
      ],
      "payable": false,
      "stateMutability": "view",
      "type": "function"
    },
    {
      "constant": true,
      "inputs": [],
      "name": "owner",
      "outputs": [
        {
          "name": "",
          "type": "address"
        }
      ],
      "payable": false,
      "stateMutability": "view",
      "type": "function"
    },
    {
      "constant": false,
      "inputs": [
        {
          "name": "newOwner",
          "type": "address"
        }
      ],
      "name": "transferOwnership",
      "outputs": [],
      "payable": false,
      "stateMutability": "nonpayable",
      "type": "function"
    },
    {
      "anonymous": false,
      "inputs": [
        {
          "indexed": false,
          "name": "zombieId",
          "type": "uint256"
        },
        {
          "indexed": false,
          "name": "name",
          "type": "string"
        },
        {
          "indexed": false,
          "name": "dna",
          "type": "uint256"
        }
      ],
      "name": "NewZombie",
      "type": "event"
    },
    {
      "anonymous": false,
      "inputs": [
        {
          "indexed": true,
          "name": "previousOwner",
          "type": "address"
        },
        {
          "indexed": true,
          "name": "newOwner",
          "type": "address"
        }
      ],
      "name": "OwnershipTransferred",
      "type": "event"
    },
    {
      "constant": false,
      "inputs": [
        {
          "name": "_name",
          "type": "string"
        }
      ],
      "name": "createRandomZombie",
      "outputs": [],
      "payable": false,
      "stateMutability": "nonpayable",
      "type": "function"
    }
  ],
  "bytecode": "0x60806040526010600155600154600a0a60025562015180600355336000806101000a81548173ffffffffffffffffffffffffffffffffffffffff021916908373ffffffffffffffffffffffffffffffffffffffff160217905550610ac8806100686000396000f30060806040526004361061006d576000357c0100000000000000000000000000000000000000000000000000000000900463ffffffff1680632052465e14610072578063528b7b8f146101635780637bff0a01146101d05780638da5cb5b14610239578063f2fde38b14610290575b600080fd5b34801561007e57600080fd5b5061009d600480360381019080803590602001909291905050506102d3565b60405180806020018781526020018663ffffffff1663ffffffff1681526020018563ffffffff1663ffffffff1681526020018461ffff1661ffff1681526020018361ffff1661ffff168152602001828103825288818151815260200191508051906020019080838360005b83811015610123578082015181840152602081019050610108565b50505050905090810190601f1680156101505780820380516001836020036101000a031916815260200191505b5097505050505050505060405180910390f35b34801561016f57600080fd5b5061018e600480360381019080803590602001909291905050506103f2565b604051808273ffffffffffffffffffffffffffffffffffffffff1673ffffffffffffffffffffffffffffffffffffffff16815260200191505060405180910390f35b3480156101dc57600080fd5b50610237600480360381019080803590602001908201803590602001908080601f0160208091040260200160405190810160405280939291908181526020018383808284378201915050505050509192919290505050610425565b005b34801561024557600080fd5b5061024e61049e565b604051808273ffffffffffffffffffffffffffffffffffffffff1673ffffffffffffffffffffffffffffffffffffffff16815260200191505060405180910390f35b34801561029c57600080fd5b506102d1600480360381019080803573ffffffffffffffffffffffffffffffffffffffff1690602001909291905050506104c3565b005b6004818154811015156102e257fe5b9060005260206000209060030201600091509050806000018054600181600116156101000203166002900480601f01602080910402602001604051908101604052809291908181526020018280546001816001161561010002031660029004801561038e5780601f106103635761010080835404028352916020019161038e565b820191906000526020600020905b81548152906001019060200180831161037157829003601f168201915b5050505050908060010154908060020160009054906101000a900463ffffffff16908060020160049054906101000a900463ffffffff16908060020160089054906101000a900461ffff169080600201600a9054906101000a900461ffff16905086565b60056020528060005260406000206000915054906101000a900473ffffffffffffffffffffffffffffffffffffffff1681565b600080600660003373ffffffffffffffffffffffffffffffffffffffff1673ffffffffffffffffffffffffffffffffffffffff1681526020019081526020016000205414151561047457600080fd5b61047d82610618565b905060648181151561048b57fe5b068103905061049a8282610706565b5050565b6000809054906101000a900473ffffffffffffffffffffffffffffffffffffffff1681565b6000809054906101000a900473ffffffffffffffffffffffffffffffffffffffff1673ffffffffffffffffffffffffffffffffffffffff163373ffffffffffffffffffffffffffffffffffffffff1614151561051e57600080fd5b600073ffffffffffffffffffffffffffffffffffffffff168173ffffffffffffffffffffffffffffffffffffffff161415151561055a57600080fd5b8073ffffffffffffffffffffffffffffffffffffffff166000809054906101000a900473ffffffffffffffffffffffffffffffffffffffff1673ffffffffffffffffffffffffffffffffffffffff167f8be0079c531659141344cd1fd0a4f28419497f9722a3daafe3b4186f6b6457e060405160405180910390a3806000806101000a81548173ffffffffffffffffffffffffffffffffffffffff021916908373ffffffffffffffffffffffffffffffffffffffff16021790555050565b600080826040516020018082805190602001908083835b602083101515610654578051825260208201915060208101905060208303925061062f565b6001836020036101000a0380198251168184511680821785525050505050509050019150506040516020818303038152906040526040518082805190602001908083835b6020831015156106bd5780518252602082019150602081019050602083039250610698565b6001836020036101000a0380198251168184511680821785525050505050509050019150506040518091039020600190049050600254818115156106fd57fe5b06915050919050565b60006001600460c060405190810160405280868152602001858152602001600163ffffffff168152602001600354420163ffffffff168152602001600061ffff168152602001600061ffff1681525090806001815401808255809150509060018203906000526020600020906003020160009091929091909150600082015181600001908051906020019061079c9291906109f7565b506020820151816001015560408201518160020160006101000a81548163ffffffff021916908363ffffffff16021790555060608201518160020160046101000a81548163ffffffff021916908363ffffffff16021790555060808201518160020160086101000a81548161ffff021916908361ffff16021790555060a082015181600201600a6101000a81548161ffff021916908361ffff1602179055505050039050336005600083815260200190815260200160002060006101000a81548173ffffffffffffffffffffffffffffffffffffffff021916908373ffffffffffffffffffffffffffffffffffffffff1602179055506108e56001600660003373ffffffffffffffffffffffffffffffffffffffff1673ffffffffffffffffffffffffffffffffffffffff168152602001908152602001600020546109d990919063ffffffff16565b600660003373ffffffffffffffffffffffffffffffffffffffff1673ffffffffffffffffffffffffffffffffffffffff168152602001908152602001600020819055507f88f026aacbbecc90c18411df4b1185fd8d9be2470f1962f192bf84a27d0704b78184846040518084815260200180602001838152602001828103825284818151815260200191508051906020019080838360005b8381101561099857808201518184015260208101905061097d565b50505050905090810190601f1680156109c55780820380516001836020036101000a031916815260200191505b5094505050505060405180910390a1505050565b60008082840190508381101515156109ed57fe5b8091505092915050565b828054600181600116156101000203166002900490600052602060002090601f016020900481019282601f10610a3857805160ff1916838001178555610a66565b82800160010185558215610a66579182015b82811115610a65578251825591602001919060010190610a4a565b5b509050610a739190610a77565b5090565b610a9991905b80821115610a95576000816000905550600101610a7d565b5090565b905600a165627a7a72305820418865869e4c116a54ed7fa37f2dccc23250f6df5dc3ba92422afcd908a3dfbe0029",
  "source": "pragma solidity ^0.4.25;\r\n\r\nimport \"./ownable.sol\";\r\nimport \"./safemath.sol\";\r\n\r\ncontract ZombieFactory is Ownable {\r\n\r\n  using SafeMath for uint256;\r\n  using SafeMath32 for uint32;\r\n  using SafeMath16 for uint16;\r\n\r\n  event NewZombie(uint zombieId, string name, uint dna);\r\n\r\n  uint dnaDigits = 16;\r\n  uint dnaModulus = 10 ** dnaDigits;\r\n  uint cooldownTime = 1 days;\r\n\r\n  struct Zombie {\r\n    string name;\r\n    uint dna;\r\n    uint32 level;\r\n    uint32 readyTime;\r\n    uint16 winCount;\r\n    uint16 lossCount;\r\n  }\r\n\r\n  Zombie[] public zombies;\r\n\r\n  mapping (uint => address) public zombieToOwner;\r\n  mapping (address => uint) ownerZombieCount;\r\n\r\n  function _createZombie(string _name, uint _dna) internal {\r\n    // \"now\" returns a uint256 so it needs to be converted to uin32 for our struct\r\n    uint id = zombies.push(Zombie(_name, _dna, 1, uint32(now + cooldownTime), 0, 0)) - 1;\r\n    zombieToOwner[id] = msg.sender;\r\n    ownerZombieCount[msg.sender] = ownerZombieCount[msg.sender].add(1);\r\n    emit NewZombie(id, _name, _dna);\r\n  }\r\n\r\n  function _generateRandomDna(string _str) private view returns (uint) {\r\n    uint rand = uint(keccak256(abi.encodePacked(_str)));\r\n    return rand % dnaModulus;\r\n  }\r\n\r\n  function createRandomZombie(string _name) public {\r\n    require(ownerZombieCount[msg.sender] == 0);\r\n    uint randDna = _generateRandomDna(_name);\r\n    randDna = randDna - randDna % 100;\r\n    _createZombie(_name, randDna);\r\n  }\r\n\r\n}\r\n",
  "sourcePath": "C:\\Users\\Nico\\Projects\\eth\\cryptozombies\\src\\ethereum\\contracts\\zombiefactory.sol",
  "compiler": {
    "name": "solc",
    "version": "0.4.26+commit.4563c3fc.Emscripten.clang"
  },
  "schemaVersion": "3.4.3",
  "updatedAt": "2021-10-02T20:03:12.517Z",
  "devdoc": {
    "methods": {
      "transferOwnership(address)": {
        "details": "Allows the current owner to transfer control of the contract to a newOwner.\r",
        "params": {
          "newOwner": "The address to transfer ownership to.\r"
        }
      }
    }
  },
  "userdoc": {
    "methods": {}
  }
}